{
  "contractName": "Fundraiser",
  "abi": [
    {
      "inputs": [],
      "name": "ERROR__COLLECTOR__CANT__BE__A__DONATOR",
      "type": "error"
    },
    {
      "inputs": [],
      "name": "ERROR__Donor__Not__Registered",
      "type": "error"
    },
    {
      "inputs": [],
      "name": "ERROR__INVALID__FUND__ZONE",
      "type": "error"
    },
    {
      "inputs": [],
      "name": "ERROR__NOT__ENOUGH__BALANCE",
      "type": "error"
    },
    {
      "inputs": [],
      "name": "ERROR__NOT__ENOUGH__SENT__VALUE",
      "type": "error"
    },
    {
      "inputs": [],
      "name": "accountNo",
      "outputs": [
        {
          "internalType": "uint256",
          "name": "",
          "type": "uint256"
        }
      ],
      "stateMutability": "view",
      "type": "function"
    },
    {
      "inputs": [],
      "name": "chittagongNorthCollector",
      "outputs": [
        {
          "internalType": "address",
          "name": "",
          "type": "address"
        }
      ],
      "stateMutability": "view",
      "type": "function"
    },
    {
      "inputs": [],
      "name": "chittagongSouthCollector",
      "outputs": [
        {
          "internalType": "address",
          "name": "",
          "type": "address"
        }
      ],
      "stateMutability": "view",
      "type": "function"
    },
    {
      "inputs": [],
      "name": "sylhetCollector",
      "outputs": [
        {
          "internalType": "address",
          "name": "",
          "type": "address"
        }
      ],
      "stateMutability": "view",
      "type": "function"
    },
    {
      "inputs": [
        {
          "internalType": "string",
          "name": "_name",
          "type": "string"
        },
        {
          "internalType": "string",
          "name": "_mobileNum",
          "type": "string"
        }
      ],
      "name": "registerDonor",
      "outputs": [],
      "stateMutability": "nonpayable",
      "type": "function"
    },
    {
      "inputs": [
        {
          "internalType": "string",
          "name": "_mobile",
          "type": "string"
        },
        {
          "internalType": "string",
          "name": "_fundZone",
          "type": "string"
        }
      ],
      "name": "donate",
      "outputs": [],
      "stateMutability": "payable",
      "type": "function"
    },
    {
      "inputs": [
        {
          "internalType": "address",
          "name": "_add",
          "type": "address"
        }
      ],
      "name": "getDonor",
      "outputs": [
        {
          "internalType": "string",
          "name": "",
          "type": "string"
        },
        {
          "internalType": "string",
          "name": "",
          "type": "string"
        }
      ],
      "stateMutability": "view",
      "type": "function"
    },
    {
      "inputs": [],
      "name": "getDonationAmountSylhet",
      "outputs": [
        {
          "internalType": "uint256",
          "name": "",
          "type": "uint256"
        }
      ],
      "stateMutability": "view",
      "type": "function"
    },
    {
      "inputs": [],
      "name": "getDonationAmountChittagongSouth",
      "outputs": [
        {
          "internalType": "uint256",
          "name": "",
          "type": "uint256"
        }
      ],
      "stateMutability": "view",
      "type": "function"
    },
    {
      "inputs": [],
      "name": "getDonationAmountChittagongNorth",
      "outputs": [
        {
          "internalType": "uint256",
          "name": "",
          "type": "uint256"
        }
      ],
      "stateMutability": "view",
      "type": "function"
    },
    {
      "inputs": [],
      "name": "getTotalDonation",
      "outputs": [
        {
          "internalType": "uint256",
          "name": "",
          "type": "uint256"
        }
      ],
      "stateMutability": "view",
      "type": "function"
    }
  ],
  "bytecode": "0x6080604052731375b15e8960f6be79a4204ddfc1cb3bd5d00d095f806101000a81548173ffffffffffffffffffffffffffffffffffffffff021916908373ffffffffffffffffffffffffffffffffffffffff16021790555073090920cd992e1f349ea00bbf59e9d11eea49249460015f6101000a81548173ffffffffffffffffffffffffffffffffffffffff021916908373ffffffffffffffffffffffffffffffffffffffff16021790555073c23396c0648ec35ab16efba2fd2aa0b83996655660025f6101000a81548173ffffffffffffffffffffffffffffffffffffffff021916908373ffffffffffffffffffffffffffffffffffffffff1602179055505f6003555f8054906101000a900473ffffffffffffffffffffffffffffffffffffffff1673ffffffffffffffffffffffffffffffffffffffff163160045560015f9054906101000a900473ffffffffffffffffffffffffffffffffffffffff1673ffffffffffffffffffffffffffffffffffffffff163160055560025f9054906101000a900473ffffffffffffffffffffffffffffffffffffffff1673ffffffffffffffffffffffffffffffffffffffff16316006553480156101c0575f80fd5b506114aa806101ce5f395ff3fe60806040526004361061009b575f3560e01c80636eedb80e116100635780636eedb80e1461016357806396c590431461018d5780639dfa7f11146101ca578063a167b2a0146101f4578063a577589e1461021e578063f33eb416146102465761009b565b80630d1e16db1461009f5780631653441c146100c957806333d05ee4146100e557806350531f091461010f57806356e23eb114610139575b5f80fd5b3480156100aa575f80fd5b506100b3610270565b6040516100c09190610c2f565b60405180910390f35b6100e360048036038101906100de9190610d95565b6102ba565b005b3480156100f0575f80fd5b506100f9610615565b6040516101069190610e4a565b60405180910390f35b34801561011a575f80fd5b50610123610638565b6040516101309190610e4a565b60405180910390f35b348015610144575f80fd5b5061014d61065d565b60405161015a9190610c2f565b60405180910390f35b34801561016e575f80fd5b50610177610747565b6040516101849190610c2f565b60405180910390f35b348015610198575f80fd5b506101b360048036038101906101ae9190610e8d565b610793565b6040516101c1929190610f32565b60405180910390f35b3480156101d5575f80fd5b506101de610933565b6040516101eb9190610c2f565b60405180910390f35b3480156101ff575f80fd5b50610208610939565b6040516102159190610e4a565b60405180910390f35b348015610229575f80fd5b50610244600480360381019061023f9190610d95565b61095e565b005b348015610251575f80fd5b5061025a610bab565b6040516102679190610c2f565b60405180910390f35b5f6004545f8054906101000a900473ffffffffffffffffffffffffffffffffffffffff1673ffffffffffffffffffffffffffffffffffffffff16316102b59190610f94565b905090565b5f6007836040516102cb9190611001565b90815260200160405180910390205f015411156105df575f3411156105a8575f3373ffffffffffffffffffffffffffffffffffffffff163111156105715760405160200161031890611061565b604051602081830303815290604052805190602001208160405160200161033f9190611001565b60405160208183030381529060405280519060200120036103c2575f8054906101000a900473ffffffffffffffffffffffffffffffffffffffff1673ffffffffffffffffffffffffffffffffffffffff166108fc3490811502906040515f60405180830381858888f193505050501580156103bc573d5f803e3d5ffd5b5061056c565b6040516020016103d1906110bf565b60405160208183030381529060405280519060200120816040516020016103f89190611001565b604051602081830303815290604052805190602001200361047d5760015f9054906101000a900473ffffffffffffffffffffffffffffffffffffffff1673ffffffffffffffffffffffffffffffffffffffff166108fc3490811502906040515f60405180830381858888f19350505050158015610477573d5f803e3d5ffd5b5061056b565b60405160200161048c9061111d565b60405160208183030381529060405280519060200120816040516020016104b39190611001565b60405160208183030381529060405280519060200120036105385760025f9054906101000a900473ffffffffffffffffffffffffffffffffffffffff1673ffffffffffffffffffffffffffffffffffffffff166108fc3490811502906040515f60405180830381858888f19350505050158015610532573d5f803e3d5ffd5b5061056a565b6040517f876d643d00000000000000000000000000000000000000000000000000000000815260040160405180910390fd5b5b5b6105a3565b6040517f01ea5e6500000000000000000000000000000000000000000000000000000000815260040160405180910390fd5b6105da565b6040517faf5fae8400000000000000000000000000000000000000000000000000000000815260040160405180910390fd5b610611565b6040517f6865801d00000000000000000000000000000000000000000000000000000000815260040160405180910390fd5b5050565b5f8054906101000a900473ffffffffffffffffffffffffffffffffffffffff1681565b60025f9054906101000a900473ffffffffffffffffffffffffffffffffffffffff1681565b5f60065460055460045460025f9054906101000a900473ffffffffffffffffffffffffffffffffffffffff1673ffffffffffffffffffffffffffffffffffffffff163160015f9054906101000a900473ffffffffffffffffffffffffffffffffffffffff1673ffffffffffffffffffffffffffffffffffffffff16315f8054906101000a900473ffffffffffffffffffffffffffffffffffffffff1673ffffffffffffffffffffffffffffffffffffffff163161071a9190611131565b6107249190611131565b61072e9190610f94565b6107389190610f94565b6107429190610f94565b905090565b5f60065460025f9054906101000a900473ffffffffffffffffffffffffffffffffffffffff1673ffffffffffffffffffffffffffffffffffffffff163161078e9190610f94565b905090565b60608060085f8473ffffffffffffffffffffffffffffffffffffffff1673ffffffffffffffffffffffffffffffffffffffff1681526020019081526020015f2060010160085f8573ffffffffffffffffffffffffffffffffffffffff1673ffffffffffffffffffffffffffffffffffffffff1681526020019081526020015f2060020181805461082290611191565b80601f016020809104026020016040519081016040528092919081815260200182805461084e90611191565b80156108995780601f1061087057610100808354040283529160200191610899565b820191905f5260205f20905b81548152906001019060200180831161087c57829003601f168201915b505050505091508080546108ac90611191565b80601f01602080910402602001604051908101604052809291908181526020018280546108d890611191565b80156109235780601f106108fa57610100808354040283529160200191610923565b820191905f5260205f20905b81548152906001019060200180831161090657829003601f168201915b5050505050905091509150915091565b60035481565b60015f9054906101000a900473ffffffffffffffffffffffffffffffffffffffff1681565b60015f9054906101000a900473ffffffffffffffffffffffffffffffffffffffff1673ffffffffffffffffffffffffffffffffffffffff163373ffffffffffffffffffffffffffffffffffffffff1614158015610a08575060025f9054906101000a900473ffffffffffffffffffffffffffffffffffffffff1673ffffffffffffffffffffffffffffffffffffffff163373ffffffffffffffffffffffffffffffffffffffff1614155b8015610a5f57505f8054906101000a900473ffffffffffffffffffffffffffffffffffffffff1673ffffffffffffffffffffffffffffffffffffffff163373ffffffffffffffffffffffffffffffffffffffff1614155b15610b7557610a6c610bf7565b82816020018190525081816040018190525060035f815480929190610a90906111c1565b9190505550600354815f0181815250508060078260400151604051610ab59190611001565b90815260200160405180910390205f820151815f01556020820151816001019081610ae091906113a5565b506040820151816002019081610af691906113a5565b509050508060085f3373ffffffffffffffffffffffffffffffffffffffff1673ffffffffffffffffffffffffffffffffffffffff1681526020019081526020015f205f820151815f01556020820151816001019081610b5591906113a5565b506040820151816002019081610b6b91906113a5565b5090505050610ba7565b6040517fb8deae7300000000000000000000000000000000000000000000000000000000815260040160405180910390fd5b5050565b5f60055460015f9054906101000a900473ffffffffffffffffffffffffffffffffffffffff1673ffffffffffffffffffffffffffffffffffffffff1631610bf29190610f94565b905090565b60405180606001604052805f815260200160608152602001606081525090565b5f819050919050565b610c2981610c17565b82525050565b5f602082019050610c425f830184610c20565b92915050565b5f604051905090565b5f80fd5b5f80fd5b5f80fd5b5f80fd5b5f601f19601f8301169050919050565b7f4e487b71000000000000000000000000000000000000000000000000000000005f52604160045260245ffd5b610ca782610c61565b810181811067ffffffffffffffff82111715610cc657610cc5610c71565b5b80604052505050565b5f610cd8610c48565b9050610ce48282610c9e565b919050565b5f67ffffffffffffffff821115610d0357610d02610c71565b5b610d0c82610c61565b9050602081019050919050565b828183375f83830152505050565b5f610d39610d3484610ce9565b610ccf565b905082815260208101848484011115610d5557610d54610c5d565b5b610d60848285610d19565b509392505050565b5f82601f830112610d7c57610d7b610c59565b5b8135610d8c848260208601610d27565b91505092915050565b5f8060408385031215610dab57610daa610c51565b5b5f83013567ffffffffffffffff811115610dc857610dc7610c55565b5b610dd485828601610d68565b925050602083013567ffffffffffffffff811115610df557610df4610c55565b5b610e0185828601610d68565b9150509250929050565b5f73ffffffffffffffffffffffffffffffffffffffff82169050919050565b5f610e3482610e0b565b9050919050565b610e4481610e2a565b82525050565b5f602082019050610e5d5f830184610e3b565b92915050565b610e6c81610e2a565b8114610e76575f80fd5b50565b5f81359050610e8781610e63565b92915050565b5f60208284031215610ea257610ea1610c51565b5b5f610eaf84828501610e79565b91505092915050565b5f81519050919050565b5f82825260208201905092915050565b5f5b83811015610eef578082015181840152602081019050610ed4565b5f8484015250505050565b5f610f0482610eb8565b610f0e8185610ec2565b9350610f1e818560208601610ed2565b610f2781610c61565b840191505092915050565b5f6040820190508181035f830152610f4a8185610efa565b90508181036020830152610f5e8184610efa565b90509392505050565b7f4e487b71000000000000000000000000000000000000000000000000000000005f52601160045260245ffd5b5f610f9e82610c17565b9150610fa983610c17565b9250828203905081811115610fc157610fc0610f67565b5b92915050565b5f81905092915050565b5f610fdb82610eb8565b610fe58185610fc7565b9350610ff5818560208601610ed2565b80840191505092915050565b5f61100c8284610fd1565b915081905092915050565b7f53796c68657400000000000000000000000000000000000000000000000000005f82015250565b5f61104b600683610fc7565b915061105682611017565b600682019050919050565b5f61106b8261103f565b9150819050919050565b7f436869747461676f6e6720536f757468000000000000000000000000000000005f82015250565b5f6110a9601083610fc7565b91506110b482611075565b601082019050919050565b5f6110c98261109d565b9150819050919050565b7f436869747461676f6e67204e6f727468000000000000000000000000000000005f82015250565b5f611107601083610fc7565b9150611112826110d3565b601082019050919050565b5f611127826110fb565b9150819050919050565b5f61113b82610c17565b915061114683610c17565b925082820190508082111561115e5761115d610f67565b5b92915050565b7f4e487b71000000000000000000000000000000000000000000000000000000005f52602260045260245ffd5b5f60028204905060018216806111a857607f821691505b6020821081036111bb576111ba611164565b5b50919050565b5f6111cb82610c17565b91507fffffffffffffffffffffffffffffffffffffffffffffffffffffffffffffffff82036111fd576111fc610f67565b5b600182019050919050565b5f819050815f5260205f209050919050565b5f6020601f8301049050919050565b5f82821b905092915050565b5f600883026112647fffffffffffffffffffffffffffffffffffffffffffffffffffffffffffffffff82611229565b61126e8683611229565b95508019841693508086168417925050509392505050565b5f819050919050565b5f6112a96112a461129f84610c17565b611286565b610c17565b9050919050565b5f819050919050565b6112c28361128f565b6112d66112ce826112b0565b848454611235565b825550505050565b5f90565b6112ea6112de565b6112f58184846112b9565b505050565b5b818110156113185761130d5f826112e2565b6001810190506112fb565b5050565b601f82111561135d5761132e81611208565b6113378461121a565b81016020851015611346578190505b61135a6113528561121a565b8301826112fa565b50505b505050565b5f82821c905092915050565b5f61137d5f1984600802611362565b1980831691505092915050565b5f611395838361136e565b9150826002028217905092915050565b6113ae82610eb8565b67ffffffffffffffff8111156113c7576113c6610c71565b5b6113d18254611191565b6113dc82828561131c565b5f60209050601f83116001811461140d575f84156113fb578287015190505b611405858261138a565b86555061146c565b601f19841661141b86611208565b5f5b828110156114425784890151825560018201915060208501945060208101905061141d565b8683101561145f578489015161145b601f89168261136e565b8355505b6001600288020188555050505b50505050505056fea2646970667358221220708ebfaa8b51fa6960d8df69af5d55fd98587c00926460dc1bc636e108c8ed1d64736f6c63430008150033",
  "immutableReferences": {},
  "source": "// SPDX-License-Identifier: MIT\r\n\r\npragma solidity ^0.8.0;\r\n\r\ncontract Fundraiser {\r\n    error ERROR__Donor__Not__Registered();\r\n    error ERROR__COLLECTOR__CANT__BE__A__DONATOR();\r\n    error ERROR__NOT__ENOUGH__SENT__VALUE();\r\n    error ERROR__NOT__ENOUGH__BALANCE();\r\n    error ERROR__INVALID__FUND__ZONE();\r\n\r\n    address public sylhetCollector = 0x1375b15E8960F6BE79a4204ddfC1cB3BD5d00d09;\r\n    address public chittagongSouthCollector = 0x090920cD992E1F349ea00bbf59e9d11Eea492494;\r\n    address public chittagongNorthCollector = 0xC23396C0648Ec35ab16EfBA2Fd2aA0B839966556;\r\n    uint256 public accountNo = 0;\r\n\r\n    uint256 private sylhetCollectorBalance_initial = sylhetCollector.balance;\r\n    uint256 private chittagongSouthCollectorBalance_initial = chittagongSouthCollector.balance;\r\n    uint256 private chittagongNorthCollectorBalance_initial = chittagongNorthCollector.balance;\r\n\r\n    struct Donor {\r\n        uint256 donorAccountNo;\r\n        string name;\r\n        string mobileNum;\r\n    }\r\n\r\n    mapping(string => Donor) private donors;\r\n    mapping(address => Donor) private donorsAddress;\r\n\r\n    function registerDonor(\r\n        string memory _name,\r\n        string memory _mobileNum\r\n    ) public {\r\n        if (\r\n            msg.sender != chittagongSouthCollector &&\r\n            msg.sender != chittagongNorthCollector &&\r\n            msg.sender != sylhetCollector\r\n        ) {\r\n            Donor memory newDonor;\r\n\r\n            newDonor.name = _name;\r\n            newDonor.mobileNum = _mobileNum;\r\n            accountNo++;\r\n            newDonor.donorAccountNo = accountNo;\r\n            donors[newDonor.mobileNum] = newDonor;\r\n            donorsAddress[msg.sender] = newDonor;\r\n        } else {\r\n            revert ERROR__COLLECTOR__CANT__BE__A__DONATOR();\r\n        }\r\n    }\r\n\r\n    function donate(\r\n        string memory _mobile,\r\n        string memory _fundZone\r\n    ) public payable {\r\n        if (donors[_mobile].donorAccountNo > 0) {\r\n            if (msg.value > 0) {\r\n                if (msg.sender.balance > 0) {\r\n                    if (\r\n                        keccak256(abi.encodePacked(_fundZone)) ==\r\n                        keccak256(abi.encodePacked(\"Sylhet\"))\r\n                    ) {\r\n                        payable(sylhetCollector).transfer(msg.value);\r\n                    } else if (\r\n                        keccak256(abi.encodePacked(_fundZone)) ==\r\n                        keccak256(abi.encodePacked(\"Chittagong South\"))\r\n                    ) {\r\n                        payable(chittagongSouthCollector).transfer(msg.value);\r\n                    } else if (\r\n                        keccak256(abi.encodePacked(_fundZone)) ==\r\n                        keccak256(abi.encodePacked(\"Chittagong North\"))\r\n                    ) {\r\n                        payable(chittagongNorthCollector).transfer(msg.value);\r\n                    } else {\r\n                        revert ERROR__INVALID__FUND__ZONE();\r\n                    }\r\n                } else {\r\n                    revert ERROR__NOT__ENOUGH__BALANCE();\r\n                }\r\n            } else {\r\n                revert ERROR__NOT__ENOUGH__SENT__VALUE();\r\n            }\r\n        } else {\r\n            revert ERROR__Donor__Not__Registered();\r\n        }\r\n    }\r\n\r\n    function getDonor(\r\n        address _add\r\n    ) public view returns (string memory, string memory) {\r\n        return (donorsAddress[_add].name, donorsAddress[_add].mobileNum);\r\n    }\r\n\r\n    function getDonationAmountSylhet() public view returns (uint256) {\r\n        return (sylhetCollector.balance - sylhetCollectorBalance_initial);\r\n    }\r\n\r\n    function getDonationAmountChittagongSouth() public view returns (uint256) {\r\n        return (chittagongSouthCollector.balance - chittagongSouthCollectorBalance_initial);\r\n    }\r\n\r\n    function getDonationAmountChittagongNorth() public view returns (uint256) {\r\n        return (chittagongNorthCollector.balance - chittagongNorthCollectorBalance_initial);\r\n    }\r\n\r\n    function getTotalDonation() public view returns (uint256) {\r\n        return\r\n            (sylhetCollector.balance +\r\n            chittagongSouthCollector.balance +\r\n            chittagongNorthCollector.balance -\r\n            sylhetCollectorBalance_initial -\r\n            chittagongSouthCollectorBalance_initial -\r\n            chittagongNorthCollectorBalance_initial);\r\n    }\r\n}\r\n",
  "sourcePath": "C:\\Users\\Ahammod Munim Ramil\\Desktop\\Cse 446\\contracts\\Fundraiser.sol",
  "compiler": {
    "name": "solc",
    "version": "0.8.21+commit.d9974bed.Emscripten.clang"
  },
  "schemaVersion": "3.4.16",
  "updatedAt": "2024-09-13T17:05:05.633Z",
  "devdoc": {
    "kind": "dev",
    "methods": {},
    "version": 1
  },
  "userdoc": {
    "kind": "user",
    "methods": {},
    "version": 1
  }
}